:020000040000FA
:0400000044EF01F0D8
:020004000000FA
:08000800F2A411008C2AF2940D
:020010001100DD
:0E001200000E966E986E8D6E8F6E868212ECCA
:1000200000F0120004EE00F0000EF86E040EF76E01
:10003000D20EF66E080E206E0900F5CFEEFF202ED0
:10004000FBD71200866A9EEC00F01CC084FF9EEC79
:1000500000F086689EEC00F01200EBEC01F0C33873
:100060000F0B1C6EC438F00B1C2612001C401F6EB8
:100070001F9E640E1F02F4CF13F0F3CF14F0176A23
:100080007F0E186E0EEC02F01AC01FF0290E1F0230
:10009000F4380F0B1D6E0F0EF414006EF3CF01F049
:1000A0000A0E87EC01F0F00E06141E6E0F0E0614F9
:1000B000006E07C001F00A0E87EC01F006380F0B46
:1000C0001E26000E12002DEC00F022EC00F036ECA3
:1000D00000F0080E24EE00F0E7EC00F01D6204D002
:1000E000200EFCEC00F004D01D50DDEC00F01DD023
:1000F0001EC02EF0F00E2E16000E2E6216D01EC060
:100100002EF00F0E2E16000E2E6207D0200EFCECE5
:1001100000F0300EFCEC00F00BD0200EFCEC00F0F8
:100120001E500F0BDDEC00F003D01E50D8EC00F099
:10013000250EFCEC00F0ADEC00F01200080E2D6E68
:1001400000000000000000000000000000000000AF
:0A015000000000002D2EF4D712006D
:06015A008A6AC00E936EDC
:10016000280E1FEC01F0380EEEEC00F00A0E26EC23
:1001700001F0280EEEEC00F00A0E26EC01F0280E3D
:10018000EEEC00F00A0E26EC01F00C0EEEEC00F0A6
:100190000A0E26EC01F0010EEEEC00F0020E1FEC50
:1001A00001F0060EEEEC00F00A0E26EC01F0120053
:1001B000216E2138DDEC00F021500F0B106E0A0E7D
:1001C0001060070F260F1024FCEC00F01200116ED7
:1001D000DE50FCEC00F0112EFBD71200106E103830
:1001E0000F0B8A6E8A980DEC01F010500F0B8A6E7F
:1001F0008A980DEC01F01200106E10380F0B8A6E09
:100200008A880DEC01F010500F0B8A6E8A880DEC75
:1002100001F00A0E26EC01F01200000000000000C0
:10022000000000000000000000008A8A00000000BA
:10023000000000000000000000008A9A12000F6E0B
:10024000FA0E26EC01F00F2EFBD712000D6E0D3AC0
:100250000F0E0D140E6EF00E0D1630EC01F01200A4
:10026000000E0D060E5AFDE21200010EEEEC00F03B
:10027000020E1FEC01F0126E128E1250EEEC00F026
:080280000A0E26EC01F0120049
:08028800D2EC01F02BEC02F0B6
:10029000B3EC01F048EC02F0ADEC00F009EC00F03A
:1002A00063EC00F0FCEC01F05AEC01F06AEC01F0B8
:1002B00050EF01F0BEEC01F02B502126216E2C50A6
:1002C000222612005AEC02F02F502C24226E2BC052
:1002D00021F01200215056EC02F0225056EC02F0B0
:1002E0002150300F39EC02F0225039EC02F040EC92
:1002F00002F01200DFEC01F0C450300F39EC02F0D4
:0E030000C35039EC02F040EC02F07AEF01F04D
:02030E000102EA
:10031000F4CF21F0F3CF22F0000222C007F02150E9
:10032000F322F3CF06F0000EF422F4CF05F0120012
:10033000045087EC01F005C023F006C024F007C08C
:1003400025F0035087EC01F025C00BF024C00AF023
:1003500007500A2223C009F00650092205C008F000
:06036000000E082212004D
:0A036600050E226EA10E276E020E96
:10037000266EE70E296E010E286E120027C001F0CE
:1003800026C000F022C004F021C003F098EC01F078
:10039000D89029500B220BC022F028500A200F16AB
:0403A000216E1200B8
:0C03A40092802581928A2589928225830F
:1003B000010EC26E300EC16EED0EC06E1200010E47
:1003C000C26EC282C2B2FED71200110EC26EC282CB
:1003D000C2B2FED71200050EC26EC282C2B2FED7F2
:0203E000120009
:0E03E20098EC01F00A380F0B2A6E0938F00B68
:1003F0002A2609380F0B1200DFEC01F0C3CF01F001
:10040000C4CF00F0E5EC01F0C3CF04F0C4CF03F09B
:0C041000F1EC01F02B6E2AC02CF0120061
:04041C001B6A196AD4
:100420001A6AD8901B2A18361736FCE3173218328E
:10043000D88013C015F014C016F01850145A175075
:10044000135A04E215C013F016C014F01A36193608
:060450001B2EECD7120088
:0A0456005DEC02F0956A8C6A838267
:100460008380870ED56EF28AF28E120000000000A3
:1004700012008390838236EC02F063EC02F01200EB
:10048000838036EC02F0839236EC02F08382120015
:10049000AB8EAC98AC94AC8A6596670EAF6E949CAC
:1004A000AB98AB9AAC8EAB88948E12009EA8FED708
:0A04B000AD6E1200AECF2FF0120067
:0604BA00689C320E676E23
:1004C0009598959C12006A6E8390A1AAFED7A19A76
:0204D000120018
:0804D200566F6C756D653A2050
:020000040030CA
:0100000015EA
:0100010013EB
:010002007F7E
:010003007F7D
:01000400F902
:010005008B6F
:010006009168
:01000800FFF8
:01000900C036
:01000A00FFF6
:01000B00E014
:01000C00FFF4
:01000D0040B2
:00000001FF
