:020000040000FA
:04000000A0EF00F07D
:020004000000FA
:08000800F2A411008C2AF2940D
:020010001100DD
:0E0012008A6AC00E936E280E7BEC00F0380E4A
:100020004AEC00F00A0E82EC00F0280E4AEC00F0D8
:100030000A0E82EC00F0280E4AEC00F00A0E82EC68
:1000400000F00F0E4AEC00F00A0E82EC00F0010EF8
:100050004AEC00F0020E7BEC00F0060E4AEC00F0D9
:100060000A0E82EC00F01200156E153839EC00F023
:1000700015500F0B126E0A0E1260070F260F122476
:1000800058EC00F01200136EDE5058EC00F0132E06
:10009000FBD71200126E12380F0B8A6E8A9869EC29
:1000A00000F012500F0B8A6E8A9869EC00F0120073
:1000B000126E12380F0B8A6E8A8869EC00F01250AB
:1000C0000F0B8A6E8A8869EC00F00A0E82EC00F051
:1000D000120000000000000000000000000000000E
:1000E00000008A8A000000000000000000000000FC
:1000F00000008A9A1200116EFA0E82EC00F0112EA6
:10010000FBD712000F6E0F3A0F0E0F14106EF00E89
:100110000F168CEC00F01200000E0F06105AFDE2D4
:100120001200010E4AEC00F0020E7BEC00F0146E9F
:10013000148E14504AEC00F00A0E82EC00F012000B
:100140002DEC01F010EC01F009EC00F05EEC01F098
:10015000FF0E966ED0EF00F03AEC01F0C450300F75
:100160001EEC01F0C3501EEC01F025EC01F0ACEFE9
:1001700000F03AEC01F0C3CF01F0C4CF00F040EC46
:1001800001F0C3CF04F0C4CF03F052EC01F01EEC39
:1001900001F01B501EEC01F025EC01F0B9EF00F06E
:1001A00084CF0CF0290E0D6E06EC01F00EC085FF19
:0401B000D0EF00F09C
:0C01B4000102F4CF15F0F3CF16F00002AA
:1001C00016C007F01550F322F3CF06F0000EF4220C
:1001D000F4CF05F012000450DAEC00F005C017F07F
:1001E00006C018F007C019F00350DAEC00F019C08F
:1001F0000BF018C00AF007500A2217C009F0065089
:10020000092205C008F0000E08221200000E0E6E32
:10021000D8800D500C5AD8A80E2AD8A8FAD71200A8
:1002200046EC01F0956A8C6A83828380870ED56ED6
:10023000F28AF28E12000000000012008390838286
:100240001BEC01F04CEC01F0120083801BEC01F080
:0A02500083921BEC01F08382120080
:06025A0092802581928ACA
:10026000258992822583010EC26E300EC16EED0E7D
:10027000C06E1200010EC26EC282C2B2FED7120060
:0C028000110EC26EC282C2B2FED7120084
:04028C00689C320E2A
:10029000676E9598959C12006A6E8390A1AAFED70E
:0402A000A19A12000D
:0C02A400EBEC00F00A380F0B1B6E093861
:0C02B000F00B1B2609380F0B300F12005A
:0402BC00000E976E2B
:1002C000986E868000001AC085FF000086900000AE
:0202D00012001A
:020000040030CA
:0100000015EA
:0100010013EB
:010002007F7E
:010003007F7D
:01000400F902
:010005008B6F
:010006009168
:01000800FFF8
:01000900C036
:01000A00FFF6
:01000B00E014
:01000C00FFF4
:01000D0040B2
:00000001FF
