:020000040000FA
:0400000009EF00F014
:020004000000FA
:08000800F2A411008C2AF2940D
:020010001100DD
:0E00120083EC00F066EC00F0000E976E986E26
:100020008E6E8F6E21EF00F08EEC00F0C450300F1A
:1000300074EC00F0C35074EC00F07BEC00F014EFB3
:1000400000F08EEC00F0C3CF01F0C4CF00F094ECD0
:1000500000F0C3CF04F0C4CF03F0A6EC00F0856E2F
:1000600074EC00F01150866E74EC00F07BEC00F044
:0400700021EF00F08C
:0C0074000102F4CF0CF0F3CF0DF00002FD
:100080000DC007F00C50F322F3CF06F0000EF4225F
:10009000F4CF05F0120004503AEC00F005C00EF069
:1000A00006C00FF007C010F003503AEC00F010C08B
:1000B0000BF00FC00AF007500A220EC009F00650DC
:0C00C000092205C008F0000E0822120002
:0400CC009AEC00F0BA
:1000D000956A8C6A83828380870ED56EF28AF28E4F
:1000E00012000000000012008390838271EC00F087
:1000F000A0EC00F01200838071EC00F0839271ECB0
:0601000000F083821200F2
:0A01060092802581928A2589010E5E
:10011000C26E300EC16EED0EC06E1200010EC26EC8
:10012000C282C2B2FED71200110EC26EC282C2B229
:04013000FED71200E4
:0C013400689C320E676E9598959C120036
:0C0140006A6E8390A1AAFED7A19A12005B
:04014C004BEC00F088
:100150000A380F0B116E0938F00B112609380F0BF6
:04016000300F12004A
:020000040030CA
:0100000015EA
:0100010013EB
:010002007F7E
:010003007F7D
:01000400F902
:010005008B6F
:010006009168
:01000800FFF8
:01000900C036
:01000A00FFF6
:01000B00E014
:01000C00FFF4
:01000D0040B2
:00000001FF
