:020000040000FA
:0400000009EF00F014
:020004000000FA
:08000800F2A411008C2AF2940D
:020010001100DD
:0E001200D7EC00F0A1EC00F082EC00F035EF2E
:1000200000F0E2EC00F0C450300FAFEC00F0C35031
:10003000AFEC00F0B6EC00F011EF00F0E2EC00F0F5
:10004000C3CF01F0C4CF00F0E8EC00F0C3CF04F060
:10005000C4CF03F0FAEC00F0AFEC00F01550AFECB9
:1000600000F0B6EC00F01EEF00F0BEEC00F0E2ECA9
:1000700000F08DEC00F0C4500C24D0EC00F0C35024
:100080000D24D0EC00F035EF00F0C7EC00F0D4EC1C
:1000900000F0E2EC00F0C450AFEC00F0C3500C24D0
:0C00A000AFEC00F0B6EC00F045EF00F013
:0400AC000102F4CF8A
:1000B0000CF0F3CF0DF000020DC007F00C50F3224E
:1000C000F3CF06F0000EF422F4CF05F01200045036
:1000D00056EC00F005C00EF006C00FF007C010F09F
:1000E000035056EC00F010C00BF00FC00AF00750A0
:1000F0000A220EC009F00650092205C008F0000EC1
:0401000008221200BF
:0C010400050E0D6EA10E126E020E116EA3
:10011000E70E146E010E136E120012C001F011C032
:1001200000F00DC004F00CC003F067EC00F0D890B4
:1001300014500B220BC00DF013500A200F160C6E3A
:020140001200AB
:0E014200EEEC00F0956A8C6A83828380870E53
:10015000D56EF28AF28E1200000000001200839029
:100160008382ACEC00F0F4EC00F012008380ACEC85
:0C01700000F08392ACEC00F083821200DF
:04017C00AB8EAC9802
:10018000AC94AC8A6596670EAF6E949C1200AB8EF1
:10019000AB98AB9AAC88AC8E6596AB88948E120007
:0E01A0009EA8FED7AD6E1200AECF0CF012007E
:0201AE0092803D
:1001B0002581928A2589010EC26E300EC16EED0E28
:1001C000C06E1200010EC26EC282C2B2FED7120011
:0C01D000110EC26EC282C2B2FED7120035
:0401DC00689C320EDB
:1001E000676E9598959C12006A6E8390A1AAFED7BF
:0401F000A19A1200BE
:0C01F40067EC00F00A380F0B156E09389C
:0C020000F00B152609380F0B300F120010
:020000040030CA
:0100000015EA
:0100010013EB
:010002007F7E
:010003007F7D
:01000400F902
:010005008B6F
:010006009168
:01000800FFF8
:01000900C036
:01000A00FFF6
:01000B00E014
:01000C00FFF4
:01000D0040B2
:00000001FF
