:020000040000FA
:0400000024EF00F0F9
:020004000000FA
:08000800F2A411008C2AF2940D
:020010001100DD
:0E00120031EC00F0956A8C6A95829580870E1D
:10002000D56EF28AF28E1200000000001200959048
:1000300014EC00F037EC00F0958014EC00F0959291
:0800400014EC00F0958212009F
:0800480045EC00F0C3CF00F00D
:1000500017EC00F0C4CF00F0300F17EC00F024EFE5
:0200600000F0AE
:0E006200689C320E676E9598959C12006A6E2F
:08007000A1AAFED7A19A12001B
:0800780092802581010EC26E89
:0C008000300EC16EF60EC06E1200C2827F
:020000040030CA
:0100000015EA
:0100010013EB
:010002007F7E
:010003007F7D
:01000400F902
:010005008B6F
:010006009168
:01000800FFF8
:01000900C036
:01000A00FFF6
:01000B00E014
:01000C00FFF4
:01000D0040B2
:00000001FF
