:020000040000FA
:0400000044EF01F0D8
:020004000000FA
:08000800F2A411008C2AF2940D
:020010001100DD
:0E001200000E966E986E8D6E8F6E868212ECCA
:1000200000F0120004EE00F0000EF86E040EF76E01
:10003000FA0EF66E080E206E0900F5CFEEFF202EA8
:10004000FBD71200866A9EEC00F01CC084FF9EEC79
:1000500000F086689EEC00F012000AEC02F0C33853
:100060000F0B1C6EC438F00B1C2612001C401F6EB8
:100070001F9E640E1F02F4CF13F0F3CF14F0176A23
:100080007F0E186E10EC02F01AC01FF0290E1F022E
:10009000F4380F0B1D6E0F0EF414006EF3CF01F049
:1000A0000A0EA6EC01F0F00E06141E6E0F0E0614DA
:1000B000006E07C001F00A0EA6EC01F006380F0B27
:1000C0001E26000E12002DEC00F022EC00F036ECA3
:1000D00000F0080E24EE00F0E7EC00F01D6204D002
:1000E000200EFCEC00F004D01D50DDEC00F01DD023
:1000F0001EC02BF0F00E2B16000E2B6216D01EC069
:100100002BF00F0E2B16000E2B6207D0200EFCECEE
:1001100000F0300EFCEC00F00BD0200EFCEC00F0F8
:100120001E500F0BDDEC00F003D01E50D8EC00F099
:10013000250EFCEC00F0ADEC00F01200080E2A6E6B
:1001400000000000000000000000000000000000AF
:0A015000000000002A2EF4D7120070
:06015A008A6AC00E936EDC
:10016000280E1FEC01F0380EEEEC00F00A0E26EC23
:1001700001F0280EEEEC00F00A0E26EC01F0280E3D
:10018000EEEC00F00A0E26EC01F00C0EEEEC00F0A6
:100190000A0E26EC01F0010EEEEC00F0020E1FEC50
:1001A00001F0060EEEEC00F00A0E26EC01F0120053
:1001B000216E2138DDEC00F021500F0B106E0A0E7D
:1001C0001060070F260F1024FCEC00F01200116ED7
:1001D000DE50FCEC00F0112EFBD71200106E103830
:1001E0000F0B8A6E8A980DEC01F010500F0B8A6E7F
:1001F0008A980DEC01F01200106E10380F0B8A6E09
:100200008A880DEC01F010500F0B8A6E8A880DEC75
:1002100001F00A0E26EC01F01200000000000000C0
:10022000000000000000000000008A8A00000000BA
:10023000000000000000000000008A9A12000F6E0B
:10024000FA0E26EC01F00F2EFBD712000D6E0D3AC0
:100250000F0E0D140E6EF00E0D1630EC01F01200A4
:10026000000E0D060E5AFDE21200010EEEEC00F03B
:10027000020E1FEC01F0126E128E1250EEEC00F026
:080280000A0E26EC01F0120049
:08028800F1EC01F02DEC02F095
:10029000D2EC01F053EC02F0ADEC00F009EC00F010
:1002A00076EF01F0FEEC01F0C450300F3BEC02F0B1
:1002B000C3503BEC02F042EC02F052EF01F0FEECD6
:1002C00001F0C3CF01F0C4CF00F004EC02F0C3CFC3
:1002D00004F0C4CF03F071EC02F03BEC02F02D50BF
:1002E0003BEC02F042EC02F05FEF01F063EC00F057
:1002F00076EF01F0130E136E880E146E176A7F0EE0
:10030000186E10EC02F07AEF01F04AEC02F0FEEC0D
:1003100001F0DDEC01F0C45021245EEC02F0C3508A
:1003200022245EEC02F085EF01F062EC02F0FEECBC
:1003300001F02C50C326C450300F3BEC02F0C350E8
:0C0340003BEC02F042EC02F095EF01F003
:04034C000102F4CFE7
:1003500021F0F3CF22F0000222C007F02150F32257
:10036000F3CF06F0000EF422F4CF05F01200045093
:10037000A6EC01F005C023F006C024F007C025F06C
:100380000350A6EC01F025C00BF024C00AF0075082
:100390000A2223C009F00650092205C008F0000E09
:0403A000082212001D
:0C03A400050E226EA10E276E020E266EC2
:1003B000E70E296E010E286E120027C001F026C03C
:1003C00000F022C004F021C003F0B7EC01F0D89097
:1003D00029500B220BC022F028500A200F16216E44
:0203E000120009
:0E03E20092802581928A258992822583010EC0
:1003F000C26E300EC16EED0EC06E1200010EC26EE6
:10040000C282C2B2FED71200110EC26EC282C2B246
:10041000FED71200050EC26EC282C2B2FED7120013
:100420001B6A196A1A6AD8901B2A18361736FCE319
:1004300017321832D88013C015F014C016F01850B7
:10044000145A1750135A04E215C013F016C014F0D2
:0A0450001A3619361B2EECD71200E5
:06045A0065EC02F0956A5A
:100460008C6A83828380870ED56EF28AF28E1200A8
:100470000000000012008390838238EC02F06BECE5
:1004800002F01200838038EC02F0839238EC02F024
:040490008382120051
:0C049400AB8EAC98AC94AC8A6596670EF9
:1004A000AF6E949C1200AB8EAB98AB9AAC88AC8EBE
:1004B0006596670EAF6EAB88948E12009EA8FED72D
:0A04C000AD6E1200AECF2CF012005A
:0604CA00689C320E676E13
:1004D0009598959C12006A6E8390A1AAFED7A19A66
:0204E000120008
:0E04E200B7EC01F00A380F0B2D6E0938F00B45
:0A04F0002D2609380F0B300F120003
:0604FA00566F6C756D6584
:020500003A209F
:020000040030CA
:0100000015EA
:0100010013EB
:010002007F7E
:010003007F7D
:01000400F902
:010005008B6F
:010006009168
:01000800FFF8
:01000900C036
:01000A00FFF6
:01000B00E014
:01000C00FFF4
:01000D0040B2
:00000001FF
