:020000040000FA
:0400000041EF01F0DB
:020004000000FA
:08000800F2A411008C2AF2940D
:020010001100DD
:0E001200000E966E986E8D6E8F6E868212ECCA
:1000200000F0120004EE00F0000EF86E040EF76E01
:10003000360EF66E080E206E0900F5CFEEFF202E6C
:10004000FBD71200866A9BEC00F01CC084FF9BEC7F
:1000500000F086689BEC00F01200C3EC01F0C3389E
:100060000F0B1C6EC438F00B1C2612001C401F6EB8
:100070001F9E640E1F02F4CF13F0F3CF14F0176A23
:100080007F0E186EC9EC01F01AC01FF0290E1F0276
:10009000F4380F0B1D6E0F0EF414006EF3CF01F049
:1000A0000A0E7EEC01F0F00E06141E6E0F0E061402
:1000B000006E07C001F00A0E7EEC01F006380F0B4F
:1000C0001E26000E12002DEC00F022EC00F036ECA3
:1000D00000F0080E24EE00F0E4EC00F01D6204D005
:1000E000200EF9EC00F004D01D50DAEC00F01AD02C
:1000F000F00E20C027F02716000E276213D00F0E37
:1001000020C027F02716000E276204D0200EF9EC3D
:1001100000F00BD0200EF9EC00F01E500F0BDAECC3
:1001200000F003D01E50D5EC00F0250EF9EC00F0E5
:10013000AAEC00F01200080E266E0000000000007D
:100140000000000000000000000000000000262E5B
:04015000F4D71200CE
:0C0154008A6AC00E936E280E1CEC01F0AD
:10016000380EEBEC00F00A0E23EC01F0280EEBEC5D
:1001700000F00A0E23EC01F0280EEBEC00F00A0E62
:1001800023EC01F00F0EEBEC00F00A0E23EC01F073
:10019000010EEBEC00F0020E1CEC01F0060EEBEC95
:1001A00000F00A0E23EC01F01200216E2138DAEC87
:1001B00000F021500F0B106E0A0E1060070F260F73
:1001C0001024F9EC00F01200116EDE50F9EC00F092
:1001D000112EFBD71200106E10380F0B8A6E8A9802
:1001E0000AEC01F010500F0B8A6E8A980AEC01F0AD
:1001F0001200106E10380F0B8A6E8A880AEC01F01C
:1002000010500F0B8A6E8A880AEC01F00A0E23EC5C
:1002100001F01200000000000000000000000000DB
:10022000000000008A8A00000000000000000000BA
:10023000000000008A9A12000F6EFA0E23EC01F003
:100240000F2EFBD712000D6E0D3A0F0E0D140E6E11
:10025000F00E0D162DEC01F01200000E0D060E5AD8
:10026000FDE21200010EEBEC00F0020E1CEC01F0BE
:10027000126E128E1250EBEC00F00A0E23EC01F01D
:0202800012006A
:0E028200AAEC01F0E6EC01F0AAEC00F009ECA9
:1002900000F06FEF01F0B7EC01F0C450300FF4EC58
:1002A00001F0C350F4EC01F0FBEC01F04BEF01F076
:1002B000B7EC01F0C3CF01F0C4CF00F0BDEC01F00A
:1002C000C3CF04F0C4CF03F00FEC02F0F4EC01F064
:1002D0002850F4EC01F0FBEC01F058EF01F063EC76
:1002E00000F06FEF01F0130E136E880E146E176A94
:0C02F0007F0E186EC9EC01F073EF01F0F6
:0402FC000102F4CF38
:1003000021F0F3CF22F0000222C007F02150F322A7
:10031000F3CF06F0000EF422F4CF05F012000450E3
:100320007EEC01F005C023F006C024F007C025F0E4
:1003300003507EEC01F025C00BF024C00AF00750FA
:100340000A2223C009F00650092205C008F0000E59
:04035000082212006D
:0C03540092802581928A2589928225835F
:10036000010EC26E300EC16EED0EC06E1200010E97
:10037000C26EC282C2B2FED71200110EC26EC2821B
:10038000C2B2FED71200050EC26EC282C2B2FED742
:02039000120059
:0E0392001B6A196A1A6AD8901B2A1836173689
:1003A000FCE317321832D88013C015F014C016F0D1
:1003B0001850145A1750135A04E215C013F016C0FF
:0C03C00014F01A3619361B2EECD7120070
:0403CC0003EC02F04C
:1003D000956A8C6A83828380870ED56EF28AF28E4C
:1003E000120000000000120083908382F1EC01F003
:1003F00009EC02F012008380F1EC01F08392F1EC41
:0604000001F083821200EE
:0A040600689C320E676E9598959C75
:0E04100012006A6E8390A1AAFED7A19A120074
:02041E008FEC61
:1004200001F00A380F0B286E0938F00B282609381E
:060430000F0B300F12005B
:08043600566F6C756D653A20EC
:020000040030CA
:0100000015EA
:0100010013EB
:010002007F7E
:010003007F7D
:01000400F902
:010005008B6F
:010006009168
:01000800FFF8
:01000900C036
:01000A00FFF6
:01000B00E014
:01000C00FFF4
:01000D0040B2
:00000001FF
