:020000040000FA
:0400000009EF00F014
:020004000000FA
:08000800F2A411008C2AF2940D
:020010001100DD
:0E001200DDEC00F0C0EC00F084EC00F0ACEC93
:1000200000F013EF00F0E8EC00F0C450300FCEEC1D
:1000300000F0C350CEEC00F0D5EC00F013EF00F070
:10004000E8EC00F0C3CF01F0C4CF00F0EEEC00F01C
:10005000C3CF04F0C4CF03F000EC01F0CEEC00F00D
:100060001650CEEC00F0D5EC00F020EF00F0A3EC41
:1000700000F0E8EC00F08FEC00F0C4500C24B7EC7A
:1000800000F0C3500D24B7EC00F037EF00F0BBECEC
:1000900000F0E8EC00F01550C326C450300FCEEC51
:1000A00000F0C350CEEC00F0D5EC00F047EF00F0CC
:1000B0000102F4CF0CF0F3CF0DF000020DC007F0F9
:1000C0000C50F322F3CF06F0000EF422F4CF05F02B
:1000D0001200045058EC00F005C00EF006C00FF0FE
:1000E00007C010F0035058EC00F010C00BF00FC028
:1000F0000AF007500A220EC009F00650092205C076
:0801000008F0000E08221200B5
:08010800050E0D6EA10E126E32
:10011000020E116EE70E146E010E136E120012C065
:1001200001F011C000F00DC004F00CC003F069EC48
:1001300000F0D89014500B220BC00DF013500A2081
:060140000F160C6E120008
:0A014600AB8EAC98AC94AC8A6596C1
:10015000670EAF6E949C1200AB8EAB98AB9AAC88D6
:10016000AC8E6596670EAF6EAB88948E12009EA81B
:10017000FED7AD6E12009EAAFED7AECF15F01200CC
:10018000F4EC00F0956A8C6A83828380870ED56ECA
:10019000F28AF28E12000000000012008390838227
:1001A000CBEC00F0FAEC00F012008380CBEC00F016
:0A01B0008392CBEC00F08382120072
:0601BA0092802581928A6B
:1001C0002589010EC26E300EC16EED0EC06E12009A
:1001D000010EC26EC282C2B2FED71200110EC26EF2
:0801E000C282C2B2FED7120078
:0801E800689C320E676E9598C9
:1001F000959C12006A6E8390A1AAFED7A19A120064
:1002000069EC00F00A380F0B166E0938F00B162651
:0802100009380F0B300F12003A
:020000040030CA
:0100000015EA
:0100010013EB
:010002007F7E
:010003007F7D
:01000400F902
:010005008B6F
:010006009168
:01000800FFF8
:01000900C036
:01000A00FFF6
:01000B00E014
:01000C00FFF4
:01000D0040B2
:00000001FF
