:020000040000FA
:0400000009EF00F014
:020004000000FA
:08000800F2A411008C2AF2940D
:020010001100DD
:0E001200ADEC00F090EC00F0C4EC00F071ECEE
:1000200000F037EF00F0B8EC00F0C450300F9EEC59
:1000300000F0C3509EEC00F0A5EC00F013EF00F0D0
:10004000B8EC00F0C3CF01F0C4CF00F0BEEC00F07C
:10005000C3CF04F0C4CF03F0DDEC00F09EEC00F061
:1000600015509EEC00F0A5EC00F020EF00F0B8EC8D
:1000700000F07CEC00F0C4500C24CDEC00F0C35038
:0A0080000D24CDEC00F037EF00F086
:06008A000102F4CF0CF0AE
:10009000F3CF0DF000020DC007F00C50F322F3CFA8
:1000A00006F0000EF422F4CF05F01200045045ECE7
:1000B00000F005C00EF006C00FF007C010F00350AE
:1000C00045EC00F010C00BF00FC00AF007500A22F8
:1000D0000EC009F00650092205C008F0000E0822E3
:0200E00012000C
:0E00E200050E0D6EA10E126E020E116EE70ECF
:1000F000146E010E136E120012C001F011C000F058
:100100000DC004F00CC003F056EC00F0D890145071
:100110000B220BC00DF013500A200F160C6E1200AC
:10012000D1EC00F0956A8C6A83828380870ED56E4D
:10013000F28AF28E12000000000012008390838287
:100140009BEC00F0D7EC00F0120083809BEC00F0F9
:0A01500083929BEC00F08382120002
:06015A0092802581928ACB
:100160002589010EC26E300EC16EED0EC06E1200FA
:10017000010EC26EC282C2B2FED71200110EC26E52
:08018000C282C2B2FED71200D8
:08018800AB8EAC98AC94AC8A7C
:100190006596670EAF6E949C12009EA8FED7AD6E5A
:0201A00012004B
:0E01A200689C320E676E9598959C12006A6EEE
:0A01B0008390A1AAFED7A19A1200C5
:0601BA0056EC00F00A38CB
:1001C0000F0B156E0938F00B152609380F0B300F81
:0201D00012001B
:020000040030CA
:0100000015EA
:0100010013EB
:010002007F7E
:010003007F7D
:01000400F902
:010005008B6F
:010006009168
:01000800FFF8
:01000900C036
:01000A00FFF6
:01000B00E014
:01000C00FFF4
:01000D0040B2
:00000001FF
