:020000040000FA
:040000003EEF01F0DE
:020004000000FA
:08000800F2A411008C2AF2940D
:020010001100DD
:0E001200000E966E986E8D6E8F6E11EC00F0E3
:10002000120004EE00F0000EF86E040EF76EC20E21
:10003000F66E080E206E0900F5CFEEFF202EFBD7DE
:100040001200866A00001CC084FF00008668000061
:100050001200C8EC01F0C3380F0B1C6EC438F00B53
:100060001C261200A7EC00F01C401F6E1F9E640EA1
:100070001F02F4CF13F0F3CF14F0176A7F0E186E3F
:10008000EBEC01F01AC01FF0290E1F02F4380F0B21
:100090001D6E0F0EF414006EF3CF01F00A0E83EC08
:1000A00001F0F00E06141E6E0F0E0614006E07C04F
:1000B00001F00A0E83EC01F006380F0B1E26080E25
:1000C00024EE00F0E1EC00F0000E1D6204D0200EE2
:1000D000F6EC00F004D01D50D7EC00F01DD01EC08F
:1000E0002EF0F00E2E16000E2E6216D01EC02EF030
:1000F0000F0E2E16000E2E6207D0200EF6EC00F02A
:10010000300EF6EC00F00BD0200EF6EC00F01E5096
:100110000F0BD7EC00F003D01E50D2EC00F0250EF0
:10012000F6EC00F0120029EC00F021EC00F01200D7
:10013000080E2D6E0000000000000000000000000E
:0E01400000000000000000002D2EF4D7120079
:02014E008A6ABB
:10015000C00E936E280E19EC01F0380EE8EC00F09A
:100160000A0E20EC01F0280EE8EC00F00A0E20EC5C
:1001700001F0280EE8EC00F00A0E20EC01F00C0E65
:10018000E8EC00F00A0E20EC01F0010EE8EC00F0C3
:10019000020E19EC01F0060EE8EC00F00A0E20EC5D
:1001A00001F01200216E2138D7EC00F021500F0B26
:1001B000106E0A0E1060070F260F1024F6EC00F0E8
:1001C0001200116EDE50F6EC00F0112EFBD712007B
:1001D000106E10380F0B8A6E8A9807EC01F01050E1
:1001E0000F0B8A6E8A9807EC01F01200106E10381F
:1001F0000F0B8A6E8A8807EC01F010500F0B8A6E85
:100200008A8807EC01F00A0E20EC01F012000000D1
:1002100000000000000000000000000000008A8ACA
:1002200000000000000000000000000000008A9AAA
:1002300012000F6EFA0E20EC01F00F2EFBD7120009
:100240000D6E0D3A0F0E0D140E6EF00E0D162AECFB
:1002500001F01200000E0D060E5AFDE21200010E12
:10026000E8EC00F0020E19EC01F0126E128E125042
:0C027000E8EC00F00A0E20EC01F0120097
:04027C00AFEC01F0F2
:1002800008EC02F025EC02F040EC02F0A7EC00F0E4
:1002900009EC00F093EC00F0D9EC01F054EC01F023
:1002A00063EC01F04AEF01F030EC02F02BC021F0DA
:1002B0002C502226120052EC02F02F502C24226ED9
:1002C0002BC021F012006FEC01F02150300F16EC22
:1002D00002F0225016EC02F01DEC02F01200215048
:1002E0004EEC02F022504EEC02F01200BCEC01F099
:1002F000C450300F16EC02F0C35016EC02F01DECA7
:0603000002F076EF01F0AF
:0A0306000102F4CF21F0F3CF22F042
:10031000000222C007F02150F322F3CF06F0000EB6
:10032000F422F4CF05F01200045083EC01F005C074
:1003300023F006C024F007C025F0035083EC01F041
:1003400025C00BF024C00AF007500A2223C009F090
:0E0350000650092205C008F0000E0822120017
:02035E0092808B
:100360002581928A258992822583010EC26E300EE4
:10037000C16EED0EC06E1200010EC26EC282C2B21C
:10038000FED71200110EC26EC282C2B2FED7120098
:0C039000050EC26EC282C2B2FED712007F
:04039C0094EC01F0EC
:1003A0000A380F0B2A6E0938F00B2A2609380F0B72
:1003B0001200BCEC01F0C3CF01F0C4CF00F0C2ECDE
:1003C00001F0C3CF04F0C4CF03F0CEEC01F02B6EEC
:0603D0002AC02CF012000F
:0A03D6001B6A196A1A6AD8901B2AE4
:1003E00018361736FCE317321832D88013C015F0D0
:1003F00014C016F01850145A1750135A04E215C0BE
:1004000013F016C014F01A3619361B2EECD7120052
:1004100055EC02F0956A8C6A83828380870ED56ED4
:10042000F28AF28E12000000000012008390838294
:1004300013EC02F05BEC02F01200838013EC02F08C
:0A044000839213EC02F08382120095
:06044A00050E226EA10E5A
:10045000276E020E266EE70E296E010E286E120020
:1004600027C001F026C000F022C004F021C003F034
:1004700094EC01F0D89029500B220BC022F012000E
:10048000AB8EAC98AC94AC8A6596670EAF6E949CBC
:10049000AB98AB9AAC8EAB88948E12009EA8FED718
:0A04A000AD6E1200AECF2FF0120077
:0604AA00689C320E676E33
:1004B0009598959C12006A6E8390A1AAFED7A19A86
:0204C000120028
:0804C200566F6C756D653A2060
:020000040030CA
:0100000015EA
:0100010013EB
:010002007F7E
:010003007F7D
:01000400F902
:010005008B6F
:010006009168
:01000800FFF8
:01000900C036
:01000A00FFF6
:01000B00E014
:01000C00FFF4
:01000D0040B2
:00000001FF
