:020000040000FA
:04000000E9EF00F034
:020004000000FA
:08000800F2A411008C2AF2940D
:020010001100DD
:0E0012008A6AC00E936E280E7BEC00F0380E4A
:100020004AEC00F00A0E82EC00F0280E4AEC00F0D8
:100030000A0E82EC00F0280E4AEC00F00A0E82EC68
:1000400000F00F0E4AEC00F00A0E82EC00F0010EF8
:100050004AEC00F0020E7BEC00F0060E4AEC00F0D9
:100060000A0E82EC00F012001C6E1C3839EC00F015
:100070001C500F0B106E0A0E1060070F260F102475
:1000800058EC00F01200116EDE5058EC00F0112E0A
:10009000FBD71200106E10380F0B8A6E8A9869EC2D
:1000A00000F010500F0B8A6E8A9869EC00F0120075
:1000B000106E10380F0B8A6E8A8869EC00F01050B1
:1000C0000F0B8A6E8A8869EC00F00A0E82EC00F051
:1000D000120000000000000000000000000000000E
:1000E00000008A8A000000000000000000000000FC
:1000F00000008A9A12000F6EFA0E82EC00F00F2EAA
:10010000FBD712000D6E0D3A0F0E0D140E6EF00E91
:100110000D168CEC00F01200000E0D060E5AFDE2DA
:100120001200010E4AEC00F0020E7BEC00F0126EA1
:10013000128E12504AEC00F00A0E82EC00F012000F
:10014000000E966E986E8D6E8F6E8682866ADAECE1
:1001500000F021C084FFDAEC00F08668DAEC00F0F1
:10016000120077EC01F0C3380F0B216EC438F00B8E
:10017000212612002140246E249E290E2402F438E8
:100180000F0B226E0F0EF414006EF3CF01F00A0E67
:1001900032EC01F0F00E0614236E0F0E0614006E02
:1001A00007C001F00A0E32EC01F006380F0B2326CF
:1001B00022501200080E256E000000000000000012
:1001C000000000000000000000000000252EF4D711
:0201D00012001B
:0E01D2005EEC01F09BEC01F009EC00F0A0ECFB
:1001E00000F027EF01F06BEC01F0C450300FA9ECE8
:1001F00001F0C350A9EC01F0B0EC01F0F3EF00F016
:100200006BEC01F0C3CF01F0C4CF00F071EC01F052
:10021000C3CF04F0C4CF03F0C4EC01F0A9EC01F0AB
:100220002650A9EC01F0B0EC01F000EF01F0B1ECC8
:1002300000F0A6EC00F0BAEC00F0225034EC00F034
:10024000235034EC00F009EC00F017EF01F0310E10
:10025000136E9C0E146E176A7F0E186E7DEC01F003
:0402600027EF01F093
:0C0264000102F4CF1CF0F3CF1DF00002EB
:100270001DC007F01C50F322F3CF06F0000EF4224D
:10028000F4CF05F01200045032EC01F005C01EF06E
:1002900006C01FF007C020F0035032EC01F020C070
:1002A0000BF01FC00AF007500A221EC009F00650CA
:0C02B000092205C008F0000E0822120010
:0402BC009280258186
:1002C000928A258992822583010EC26E300EC16EFC
:1002D000ED0EC06E1200010EC26EC282C2B2FED717
:1002E0001200110EC26EC282C2B2FED71200050EFB
:0A02F000C26EC282C2B2FED7120035
:0602FA001B6A196A1A6A72
:10030000D8901B2A18361736FCE317321832D890CB
:1003100013C015F014C016F01850145A1750135A81
:1003200004E215C013F016C014F0D8701A3619364E
:060330001B2EEBD71200AA
:0A033600B8EC01F0956A8C6A83822E
:100340008380870ED56EF28AF28E120000000000C4
:10035000120083908382A6EC01F0BEEC01F0120043
:100360008380A6EC01F08392A6EC01F08382120058
:10037000689C320E676E9598959C12006A6E839009
:08038000A1AAFED7A19A120008
:0803880043EC01F00A380F0BF1
:10039000266E0938F00B262609380F0B300F120095
:020000040030CA
:0100000015EA
:0100010013EB
:010002007F7E
:010003007F7D
:01000400F902
:010005008B6F
:010006009168
:01000800FFF8
:01000900C036
:01000A00FFF6
:01000B00E014
:01000C00FFF4
:01000D0040B2
:00000001FF
