:020000040000FA
:0400000029EF00F0F4
:020004000000FA
:08000800F2A411008C2AF2940D
:020010001100DD
:0E00120047EC00F0956AFF0EB56E2F858C6AE4
:1000200083828380870ED56EF28AF28E12000000E2
:10003000000012008390838217EC00F04DEC00F07A
:100040001200838017EC00F0839217EC00F083829B
:0200500012009C
:0E0052003AEC00F009EC00F043EC00F0C45072
:10006000300F1AEC00F0C3501AEC00F021EC00F055
:040070002DEF00F080
:0C00740092802581010EC26E300EC16E1C
:0E008000ED0EC06E1200C282C2B2FED7120098
:02008E00689C6C
:10009000320E676E9598959C12006A6E8390A1AAA5
:0600A000FED7A19A120038
:020000040030CA
:0100000015EA
:0100010013EB
:010002007F7E
:010003007F7D
:01000400F902
:010005008B6F
:010006009168
:01000800FFF8
:01000900C036
:01000A00FFF6
:01000B00E014
:01000C00FFF4
:01000D0040B2
:00000001FF
