:020000040000FA
:0400000044EF01F0D8
:020004000000FA
:08000800F2A411008C2AF2940D
:020010001100DD
:0E001200000E966E986E8D6E8F6E868212ECCA
:1000200000F0120004EE00F0000EF86E040EF76E01
:100030003C0EF66E080E206E0900F5CFEEFF202E66
:10004000FBD71200866A9EEC00F01CC084FF9EEC79
:1000500000F086689EEC00F01200C6EC01F0C33898
:100060000F0B1C6EC438F00B1C2612001C401F6EB8
:100070001F9E640E1F02F4CF13F0F3CF14F0176A23
:100080007F0E186ECCEC01F01AC01FF0290E1F0273
:10009000F4380F0B1D6E0F0EF414006EF3CF01F049
:1000A0000A0E81EC01F0F00E06141E6E0F0E0614FF
:1000B000006E07C001F00A0E81EC01F006380F0B4C
:1000C0001E26000E12002DEC00F022EC00F036ECA3
:1000D00000F0080E24EE00F0E7EC00F01D6204D002
:1000E000200EFCEC00F004D01D50DDEC00F01DD023
:1000F0001EC027F0F00E2716000E276216D01EC075
:1001000027F00F0E2716000E276207D0200EFCECFA
:1001100000F0300EFCEC00F00BD0200EFCEC00F0F8
:100120001E500F0BDDEC00F003D01E50D8EC00F099
:10013000250EFCEC00F0ADEC00F01200080E266E6F
:1001400000000000000000000000000000000000AF
:0A01500000000000262EF4D7120074
:06015A008A6AC00E936EDC
:10016000280E1FEC01F0380EEEEC00F00A0E26EC23
:1001700001F0280EEEEC00F00A0E26EC01F0280E3D
:10018000EEEC00F00A0E26EC01F00C0EEEEC00F0A6
:100190000A0E26EC01F0010EEEEC00F0020E1FEC50
:1001A00001F0060EEEEC00F00A0E26EC01F0120053
:1001B000216E2138DDEC00F021500F0B106E0A0E7D
:1001C0001060070F260F1024FCEC00F01200116ED7
:1001D000DE50FCEC00F0112EFBD71200106E103830
:1001E0000F0B8A6E8A980DEC01F010500F0B8A6E7F
:1001F0008A980DEC01F01200106E10380F0B8A6E09
:100200008A880DEC01F010500F0B8A6E8A880DEC75
:1002100001F00A0E26EC01F01200000000000000C0
:10022000000000000000000000008A8A00000000BA
:10023000000000000000000000008A9A12000F6E0B
:10024000FA0E26EC01F00F2EFBD712000D6E0D3AC0
:100250000F0E0D140E6EF00E0D1630EC01F01200A4
:10026000000E0D060E5AFDE21200010EEEEC00F03B
:10027000020E1FEC01F0126E128E1250EEEC00F026
:080280000A0E26EC01F0120049
:08028800ADEC01F0E9EC01F01E
:10029000ADEC00F009EC00F072EF01F0BAEC01F007
:1002A000C450300FF7EC01F0C350F7EC01F0FEEC56
:1002B00001F04EEF01F0BAEC01F0C3CF01F0C4CF72
:1002C00000F0C0EC01F0C3CF04F0C4CF03F012EC97
:1002D00002F0F7EC01F02850F7EC01F0FEEC01F031
:1002E0005BEF01F063EC00F072EF01F0130E136EA0
:1002F000880E146E176A7F0E186ECCEC01F076EF44
:0203000001F00A
:0E0302000102F4CF21F0F3CF22F0000222C05E
:1003100007F02150F322F3CF06F0000EF422F4CFC1
:1003200005F01200045081EC01F005C023F006C076
:1003300024F007C025F0035081EC01F025C00BF03C
:1003400024C00AF007500A2223C009F006500922EF
:0A03500005C008F0000E082212009C
:06035A0092802581928AC9
:10036000258992822583010EC26E300EC16EED0E7C
:10037000C06E1200010EC26EC282C2B2FED712005F
:10038000110EC26EC282C2B2FED71200050EC26E3C
:08039000C282C2B2FED71200C6
:080398001B6A196A1A6AD89069
:1003A0001B2A18361736FCE317321832D88013C0D0
:1003B00015F014C016F01850145A1750135A04E2CE
:1003C00015C013F016C014F01A3619361B2EECD7D0
:0203D000120019
:0E03D20006EC02F0956A8C6A83828380870EA7
:1003E000D56EF28AF28E1200000000001200839097
:1003F0008382F4EC01F00CEC02F012008380F4EC48
:0C04000001F08392F4EC01F08382120002
:04040C00689C320EA8
:10041000676E9598959C12006A6E8390A1AAFED78C
:04042000A19A12008B
:0C04240092EC01F00A380F0B286E09382A
:0C043000F00B282609380F0B300F1200CB
:04043C00566F6C7516
:040440006D653A208C
:020000040030CA
:0100000015EA
:0100010013EB
:010002007F7E
:010003007F7D
:01000400F902
:010005008B6F
:010006009168
:01000800FFF8
:01000900C036
:01000A00FFF6
:01000B00E014
:01000C00FFF4
:01000D0040B2
:00000001FF
